:100000000C9463000C948B000C948B000C94600691
:100010000C9460060C9460060C948B000C948B007E
:100020000C948B000C948B000C948B000C948B0024
:100030000C948B000C948B000C948B000C948B0014
:100040000C9416060C948B000C94E4050C94BE05DD
:100050000C948B000C948B000C948B000C948B00F4
:100060000C948B000C948B000000000024002700EF
:100070002A0000000008000201000003040700003D
:1000800000000000000000000000230026002900FE
:1000900000000000250028002B00040404040404D0
:1000A0000404020202020202030303030303010227
:1000B00004081020408001020408102001020408F6
:1000C00010201D07FB0A11241FBECFEFD8E0DEBFB2
:1000D000CDBF12E0A0E0B1E0E4EBF9E102C0059091
:1000E0000D92AC32B107D9F723E0ACE2B2E001C027
:1000F0001D92A135B207E1F710E0C2E6D0E004C0DE
:100100002197FE010E94C70CC136D107C9F70E9492
:10011000F2070C94CD0C0C940000AF92BF92CF92DA
:10012000DF92EF92FF920F931F93CF93DF936C01B7
:100130007B018B01040F151FEB015E01AE18BF0898
:10014000C017D10759F06991D601ED91FC9101904A
:10015000F081E02DC6010995892B79F7C501DF9162
:10016000CF911F910F91FF90EF90DF90CF90BF90B4
:10017000AF900895FC01538D448D252F30E0842FDE
:1001800090E0821B930B541710F0CF9608950197BF
:100190000895FC01918D828D981761F0A28DAE0FAC
:1001A000BF2FB11D5D968C91928D9F5F9F73928F33
:1001B00090E008958FEF9FEF0895FC01918D828D5F
:1001C000981731F0828DE80FF11D858D90E008952C
:1001D0008FEF9FEF0895FC01918D228D892F90E084
:1001E000805C9F4F821B91098F73992708958DE73B
:1001F00092E00E94EB0021E0892B09F420E0822F9D
:10020000089580E090E0892B29F00E94F700811189
:100210000C9400000895FC01A48DA80FB92FB11D06
:10022000A35ABF4F2C91848D90E001968F7399272C
:10023000848FA689B7892C93A089B1898C9183700A
:1002400080648C93938D848D981306C00288F38903
:10025000E02D80818F7D80830895EF92FF920F9330
:100260001F93CF93DF93EC0181E0888F9B8D8C8D62
:1002700098131AC0E889F989808185FF15C09FB756
:10028000F894EE89FF896083E889F9898081837019
:10029000806480839FBF81E090E0DF91CF911F91C8
:1002A0000F91FF90EF900895F62E0B8D10E00F5FE9
:1002B0001F4F0F731127E02E8C8D8E110CC00FB6BF
:1002C00007FCFACFE889F989808185FFF5CFCE0157
:1002D0000E940B01F1CFEB8DEC0FFD2FF11DE35AC6
:1002E000FF4FF0829FB7F8940B8FEA89FB898081DA
:1002F0008062CFCFCF93DF93EC01888D8823B9F054
:10030000AA89BB89E889F9898C9185FD03C0808120
:1003100086FD0DC00FB607FCF7CF8C9185FFF2CF9D
:10032000808185FFEDCFCE010E940B01E9CFDF91E7
:10033000CF91089590E0FC01EE58FF4F2491FC010D
:10034000E255FF4F3491FC01E656FF4FE491EE2356
:10035000C9F0222339F0233001F1A8F4213019F13A
:10036000223029F1F0E0EE0FFF1FE057FF4FA5917B
:10037000B4918FB7F894EC91611126C030953E236B
:100380003C938FBF08952730A9F02830C9F024305E
:1003900049F7809180008F7D03C0809180008F7726
:1003A00080938000DFCF84B58F7784BDDBCF84B5A9
:1003B0008F7DFBCF8091B0008F778093B000D2CF3C
:1003C0008091B0008F7DF9CF3E2BDACFCF93DF93B2
:1003D00090E0FC01E255FF4F249186569F4FFC01AF
:1003E00084918823D1F090E0880F991FFC01E8598F
:1003F000FF4FA591B491FC01E057FF4FC591D491F7
:1004000061110EC09FB7F8948C91E22FE0958E2376
:100410008C932881E223E8839FBFDF91CF910895D9
:100420008FB7F894EC91E22BEC938FBFF6CF3FB7E8
:10043000F8948091710290917202A0917302B09130
:10044000740226B5A89B05C02F3F19F00196A11D87
:10045000B11D3FBFBA2FA92F982F8827BC01CD010E
:10046000620F711D811D911D42E0660F771F881F6D
:10047000991F4A95D1F708958F929F92AF92BF929C
:10048000CF92DF92EF92FF924B015C010E94170224
:100490006B017C010E9417026C197D098E099F096E
:1004A000683E734081059105A8F321E0821A910806
:1004B000A108B10888EEC80E83E0D81EE11CF11C2B
:1004C00081149104A104B10429F7FF90EF90DF900B
:1004D000CF90BF90AF909F908F900895209177021A
:1004E000309178022817390771F490917502809144
:1004F0007602981741F0E0917502F0E0E45DFD4F5F
:10050000808190E008958FEF9FEF08950895EF9216
:10051000FF920F931F93CF93DF93DC015C96ED90D6
:10052000FC905D97E114F10479F481E090E013967A
:100530009C938E93129790E080E0DF91CF911F9172
:100540000F91FF90EF9008955196ED91FC91529785
:1005500050968C915097982F90950FB75E962C914E
:100560005E97122F127021FD6095F894208111235F
:1005700019F1282B2083E7012197F1F728E0462F76
:1005800050E0308160FF1AC0382B3083E70121979B
:10059000F1F7BA0175956795215089F7112381F01C
:1005A0008081892380830FBF5C968D919C910197F8
:1005B000F1F781E090E0C1CF2923DCCF3923E5CFEB
:1005C0009081892BEFCF2091770230917802281704
:1005D000390771F4809176022091750290E0805C79
:1005E0009F4F821B910960E470E00E94980C08956F
:1005F00090E080E0089520917702309178022817EA
:100600003907B9F49091750280917602981789F0B4
:10061000E0917502F0E0E45DFD4F8081209175026C
:1006200030E02F5F3F4F2F7333272093750290E008
:1006300008958FEF9FEF0895089590E080E008956A
:10064000CF93DF93EC0160E08E810E949A0161E01C
:100650008E810E949A0160E08E810E949A018BE84F
:1006600091E00197F1F7DF91CF910895CF92DF925A
:10067000EF92FF920F931F93CF93DF936C017C0156
:1006800087E0E80EF11CD0E0C0E0062F10E0B801D2
:100690000C2E02C0759567950A94E2F76170F70118
:1006A00081917F010E949A012196C430D10579F78A
:1006B000C601DF91CF911F910F91FF90EF90DF90D6
:1006C000CF900C942003CF92DF92EF92FF920F9382
:1006D0001F93CF93DF93EC01F62E642F8C810E9441
:1006E0009A018D818F3F19F060E00E949A010F2DD1
:1006F00010E08F8584FF25C06E0187E0C80ED11CF5
:10070000F12CE12CB8010E2C02C0759567950A9466
:10071000E2F76170F60181916F010E949A01FFEF8B
:10072000EF1AFF0A88E0E816F10461F7CE01DF91C5
:10073000CF911F910F91FF90EF90DF90CF900C948D
:100740002003B80184E0759567958A95E1F7CE019D
:100750000E9436036F2DCE01DF91CF911F910F9133
:10076000FF90EF90DF90CF900C94360340E0682F1D
:100770008AE193E00C94630381E00E94B6038BE36B
:100780009FE10197F1F70895CF93DF93613029F04E
:100790009091290398609093290360932D03109200
:1007A0002E0390E490932F0380933003805C80931A
:1007B000310361E080911E030E94E60180911F03D6
:1007C0008F3F19F061E00E94E60161E08091200313
:1007D0000E94E601CAE1D3E09E012A513340809194
:1007E000290384FD0BC084E090E021962817390787
:1007F00044F461E08E810E94E601EECF88E090E053
:10080000F4CF8BE39DE00197F1F760E080911E0348
:100810000E949A0160E0809120030E949A018091D9
:100820001F038F3F19F060E00E949A018091290315
:1008300084FD34C063E08AE193E00E943603CBE498
:10084000D6E4CE010197F1F763E08AE193E00E94DC
:1008500036032197F1F763E08AE193E00E943603C3
:1008600083E592E00197F1F762E08AE193E00E946C
:1008700036038091290380620E94B60384E080934E
:100880002A038CE00E94B6030E94BC0382E080939E
:100890002B0386E0DF91CF910C94B60380620E9417
:1008A000B6038BE496E40197F1F780912903806207
:1008B0000E94B60383E592E00197F1F78091290346
:1008C00080620E94B603D5CF90912D03891710F056
:1008D0008FEF890FE82FF0E0E65EFC4F8489806897
:1008E0000C94B60341E00E94630381E090E0089518
:1008F000FB0101900020E9F73197AF01461B570B30
:10090000DC01ED91FC910280F381E02D0994BC01A2
:100910008AE193E00C9478048F929F92AF92BF92F9
:10092000CF92DF92EF92FF92CF93DF93CDB7DEB7F6
:10093000A1970FB6F894DEBF0FBECDBF6C01990F23
:10094000EE08FF08F7FE40C041E06DE28AE193E067
:100950000E94630322273327A9012C193D094E0960
:100960005F0919A2CE0181967C019AE0892E912C13
:10097000A12CB12CCA01B901A50194010E94360B2A
:10098000605DF70162937F01211531054105510535
:1009900089F790E080E0309729F0BF018AE193E089
:1009A0000E9478040196A1960FB6F894DEBF0FBEA0
:1009B000CDBFDF91CF91FF90EF90DF90CF90BF90B0
:1009C000AF909F908F900895A701960119A2CE0134
:1009D00081967C018AE0882E912CA12CB12CCA0131
:1009E000B901A50194010E94360B605DF701629385
:1009F0007F01211531054105510589F790E080E01F
:100A0000309789F2BF018AE193E00E947804CBCF4E
:100A100060E371E00C9478040F931F93CF93DF93FE
:100A2000EC010E9478048C01CE010E940805800F21
:100A3000911FDF91CF911F910F91089563E371E0B2
:100A400082E393E00E940C0563E371E08DE792E09E
:100A50000E940C0564EF71E080E090E00E943C028F
:100A600066E471E082E393E00E940C0566E471E0C5
:100A70008DE792E00E940C0564EF71E080E090E069
:100A80000E943C0261E671E082E393E00E940C0563
:100A900061E671E08DE792E00E940C0582E393E04D
:100AA0000E94080568EC70E080E090E00C943C0245
:100AB00066E771E082E393E00E940C0566E771E06F
:100AC0008DE792E00E940C0582E393E00E94080506
:100AD00068EE73E080E090E00C943C0263E371E028
:100AE00082E393E00E940C0563E371E08DE792E0FE
:100AF0000E940C0564EF71E080E090E00E943C02EF
:100B000066E471E082E393E00E940C0566E471E024
:100B10008DE792E00E940C0564EF71E080E090E0C8
:100B20000E943C0268E871E082E393E00E940C05B9
:100B300068E871E08DE792E00E940C0582E393E0A3
:100B40000E94080568EC70E080E090E00C943C02A4
:100B50006AE971E082E393E00E940C056AE971E0C2
:100B60008DE792E00E940C0582E393E00E94080565
:100B700068EE73E080E090E00C943C021F920F92CC
:100B80000FB60F9211242F933F934F935F936F9360
:100B90007F938F939F93AF93BF93EF93FF938DE7D3
:100BA00092E00E940B01FF91EF91BF91AF919F9155
:100BB0008F917F916F915F914F913F912F910F9006
:100BC0000FBE0F901F9018951F920F920FB60F92A5
:100BD00011242F938F939F93EF93FF93E0918D02B6
:100BE000F0918E028081E0919302F091940282FD57
:100BF0001BC09081809196028F5F8F732091970226
:100C0000821741F0E0919602F0E0E358FD4F958F96
:100C100080939602FF91EF919F918F912F910F906A
:100C20000FBE0F901F9018958081F4CF1F920F92E6
:100C30000FB60F9211242F933F938F939F93AF93EF
:100C4000BF9380916D0290916E02A0916F02B0915E
:100C5000700230916C0223E0230F2D3758F5019676
:100C6000A11DB11D20936C0280936D0290936E02C2
:100C7000A0936F02B0937002809171029091720202
:100C8000A0917302B09174020196A11DB11D8093D1
:100C9000710290937202A0937302B0937402BF9199
:100CA000AF919F918F913F912F910F900FBE0F9019
:100CB0001F90189526E8230F0296A11DB11DD2CFD3
:100CC0001F920F920FB60F9211242F933F934F93C1
:100CD0005F936F937F938F939F93AF93BF93EF93A4
:100CE000FF93E0917702F0917802309749F0A68562
:100CF000B7858585968D91FF14C09C918923A1F4B9
:100D0000FF91EF91BF91AF919F918F917F916F91E3
:100D10005F914F913F912F910F900FBE0F901F90B9
:100D200018959C91892361F7A389B4899C91858941
:100D3000809589238C93868997890197F1F7608D37
:100D4000718DA685B785558538E020E0CB010197E8
:100D5000F1F7822F90E095958795282F4C914523A8
:100D600009F02068315091F7868D81FD20958091A2
:100D7000760290E001968F739927309175023817AB
:100D800099F0A0917602B0E0A45DBD4F2C938093C2
:100D90007602828D938D0197F1F7A389B4898C91A6
:100DA0009589892B8C93ACCF868D8160868FF1CF0E
:100DB000CF92DF92EF92FF920F931F93E82FF92FBC
:100DC00005C0015011092109310961F19081962373
:100DD0009417B9F305C0015011092109310911F126
:100DE000908196239413F7CFC12CD12CE12CF12CB8
:100DF0000AC08FEFC81AD80AE80AF80A0C151D05B0
:100E00002E053F0579F080818623841791F36C2DA0
:100E10007D2D8E2D9F2D1F910F91FF90EF90DF90D4
:100E2000CF90089560E070E080E090E01F910F9116
:100E3000FF90EF90DF90CF90089510928002109273
:100E40007F0288EE93E0A0E0B0E08093810290936F
:100E50008202A0938302B093840224E031E03093B5
:100E60007E0220937D0225EC30E030938A022093AD
:100E7000890224EC30E030938C0220938B0220EC2A
:100E800030E030938E0220938D0221EC30E03093DD
:100E9000900220938F0222EC30E030939202209354
:100EA000910226EC30E0309394022093930210924A
:100EB0009602109297021092980210929902109244
:100EC0003503109234038093360390933703A09335
:100ED0003803B093390382E291E090933303809317
:100EE0003203109249031092480310924B03109260
:100EF0004A0310924D0310924C0310924F0310922C
:100F00004E03609150036E7F6D7F60935003669532
:100F1000617081E068270E949A0161E081E00E948F
:100F2000E601EFEAF0E0E491E0934203EBE9F0E060
:100F3000E491F0E0EE0FFF1FE057FF4F8591949191
:100F4000909344038093430360E080E00E94E601B5
:100F50008091500381FD04C061E080E00E949A010D
:100F600010923E03EEEAF0E0E491E0933F03EAE9F9
:100F7000F0E0E491F0E0EE0FFF1FEA57FF4F85919C
:100F80009491909341038093400310921D0310921B
:100F90001C0386E191E090931B0380931A038CE07D
:100FA00080931E038FEF80931F038BE080932003B9
:100FB00088E08093210387E08093220386E080937A
:100FC000230385E0809324031092250310922603C7
:100FD00010922703109228031092290361E080E108
:100FE0000C94C403789484B5826084BD84B5816018
:100FF00084BD85B5826085BD85B5816085BD8091E4
:101000006E00816080936E0010928100809181005B
:101010008260809381008091810081608093810053
:10102000809180008160809380008091B100846015
:101030008093B1008091B00081608093B000809176
:101040007A00846080937A0080917A008260809335
:101050007A0080917A00816080937A0080917A0092
:10106000806880937A001092C10064E084E10E945D
:10107000C40310924D0310924C0310924B03109234
:101080004A0310924903109248038DE991E090932E
:101090004F0380934E0390913E03963108F047C072
:1010A0002DEB30E030934903209348032BE931E0E6
:1010B00030934B0320934A032CE231E030934D03ED
:1010C00020934C032091680084E0983048F031E090
:1010D0009E3008F430E081E001C0880F3A95EAF7CD
:1010E000822B809368002DE630E0983050F02BE69C
:1010F00030E09E3030F02CE630E0963110F030E0F9
:1011000020E03093460320934503292F30E09830A8
:1011100008F08FC181E001C0880F9A95EAF78093AB
:10112000470380914E0390914F030197F1F780910F
:101130004C0390914D03892B49F1E0917702F09196
:10114000780283E0E233F80709F1309739F0A38998
:10115000B4899C918589809589238C9380915003D3
:101160008E7F80935003109276021092750282E374
:1011700093E09093780280937702E0914503F09199
:101180004603808190914703892B8083E0918D02F3
:10119000F0918E0282E08083E0918902F0918A02D0
:1011A0001082E0918B02F0918C028FEC8083109280
:1011B0009502E0919102F091920286E08083E091A5
:1011C0008F02F0919002808180618083E0918F0294
:1011D000F0919002808188608083E0918F02F0918D
:1011E0009002808180688083E0918F02F09190026C
:1011F00080818F7D808360E089E00E94E60160E06D
:101200008EE00E94E60161E08AE00E94E60160E073
:101210008AE00E949A0161E08DE00E94E60161E0AF
:1012200084E00E94E60160E08DE00E949A0160E0A7
:1012300084E00E949A0180E00E94640489EA91E0BF
:101240000E94870481E00E9464048FEA91E00E947A
:10125000870482E00E9464048AEB91E00E94870484
:1012600068EE73E080E090E00E943C020E94BC03C4
:10127000C3E0D0E093E2E92EF12C27EB822E20E0B0
:10128000922E33EAC32E30E0D32E44244A9443E016
:10129000542E612C712C50E4352E60E0A62E60E0B7
:1012A000B62E60E08AE00E949A01CE010197F1F724
:1012B00061E08AE00E949A01C7010197F1F760E0BE
:1012C0008AE00E949A01F4016491F6018491E82F6A
:1012D000F0E0EE0FFF1FEA57FF4F8591949100E475
:1012E00012E42FE030E0462F0E94D8066115710508
:1012F0008105910529F06F5F7F4F8F4F9F4F9F7042
:101300000E949F0B26E933E44BE85CE30E94030C48
:101310000E94670BDB0124E630E00E94AC0CA301C5
:1013200092010E94170B30937C0220937B02309233
:101330007C0080917A00806480937A0080917A00AA
:1013400086FDFCCF80917800A0917900BA2FA82F5C
:1013500024E630E00E94AC0CA30192010E94170B1E
:10136000C90130937A022093790220917B02309157
:101370007C02233331050CF0B0C0813591050CF0AF
:1013800065C00E94BC0380E00E94640481EC91E08F
:101390000E94870480917B0290917C020E948C04C1
:1013A00080ED91E00E94870481E00E94640482ED58
:1013B00091E00E9487048091790290917A020E94C4
:1013C0008C0480ED91E00E94870482E00E94640416
:1013D00084EE91E00E94870481EF91E00E948704EF
:1013E00083E00E94640484EF91E00E94870481EF0F
:1013F00091E00E94870461E084E00E949A0161E02C
:101400008DE00E949A010E941E050E94580568EC1A
:1014100070E080E090E00E943C02A114B10409F465
:1014200040CF0E94F700882309F43BCF0E940000C0
:1014300038CF9E3040F42850310981E001C0880F38
:101440002A95EAF76CCE2E503109F7CF0E94BC03E3
:1014500080E00E94640484E092E00E94870480910E
:101460007B0290917C020E948C0480ED91E00E94AE
:10147000870481E00E94640485E192E00E94870471
:101480008091790290917A020E948C0480ED91E023
:101490000E94870482E00E94640484EE91E00E942E
:1014A000870487E292E00E94870483E00E9464043C
:1014B00084EF91E00E94870481EF91E00E9487040D
:1014C00061E084E00E949A0160E08DE00E949A0150
:1014D0000E941E050E94A8059ACF813591050CF047
:1014E00045C00E94BC0380E00E94640484E092E056
:1014F0000E94870480917B0290917C020E948C0460
:1015000080ED91E00E94870481E00E94640485E1FF
:1015100092E00E9487048091790290917A020E9461
:101520008C0480ED91E00E94870482E00E946404B4
:1015300084EE91E00E94870481EF91E00E9487048D
:1015400083E00E94640484EF91E00E94870487E2B4
:1015500092E00E94870460E084E00E949A0161E0CA
:101560008DE00E949A010E946E054FCF0E94BC033D
:1015700080E00E94640484E092E00E9487048091ED
:101580007B0290917C020E948C0480ED91E00E948D
:10159000870481E00E94640485E192E00E94870450
:1015A0008091790290917A020E948C0480ED91E002
:1015B0000E94870482E00E94640484EE91E00E940D
:1015C000870487E292E00E94870483E00E9464041B
:1015D00084EF91E00E94870487E292E00E948704F2
:1015E00060E084E00E949A0160E08DE00E949A0130
:1015F0000E946E056FCF82E291E090933303809357
:10160000320380917702909178028253934071F473
:10161000E0914503F09146039081809147038095C6
:101620008923808310927802109277020895052E04
:1016300097FB1EF400940E942E0B57FD07D00E94CA
:10164000360B07FC03D04EF40C942E0B50954095AE
:10165000309521953F4F4F4F5F4F0895909580955E
:10166000709561957F4F8F4F9F4F0895A1E21A2E7D
:10167000AA1BBB1BFD010DC0AA1FBB1FEE1FFF1F36
:10168000A217B307E407F50720F0A21BB30BE40B86
:10169000F50B661F771F881F991F1A9469F76095CD
:1016A0007095809590959B01AC01BD01CF01089587
:1016B000A29FB001B39FC001A39F700D811D112493
:1016C000911DB29F700D811D1124911D08950E94DE
:1016D0006E0B6894B1110C94FD0B08950E94E20BFF
:1016E00088F09F5798F0B92F9927B751B0F0E1F0E3
:1016F000660F771F881F991F1AF0BA95C9F714C093
:10170000B13091F00E94FC0BB1E008950C94FC0BF9
:10171000672F782F8827B85F39F0B93FCCF38695CB
:1017200077956795B395D9F73EF490958095709528
:1017300061957F4F8F4F9F4F0895E89409C097FBA5
:101740003EF490958095709561957F4F8F4F9F4F98
:101750009923A9F0F92F96E9BB279395F6958795DC
:1017600077956795B795F111F8CFFAF4BB0F11F49F
:1017700060FF1BC06F5F7F4F8F4F9F4F16C0882346
:1017800011F096E911C0772321F09EE8872F762F7C
:1017900005C0662371F096E8862F70E060E02AF0BD
:1017A0009A95660F771F881FDAF7880F96958795A9
:1017B00097F9089557FD9058440F551F59F05F3F12
:1017C00071F04795880F97FB991F61F09F3F79F063
:1017D00087950895121613061406551FF2CF4695E5
:1017E000F1DF08C0161617061806991FF1CF869567
:1017F0007105610508940895E894BB27662777274B
:10180000CB0197F908950E94160C0C94870C0E9446
:10181000790C38F00E94800C20F0952311F00C9484
:10182000700C0C94760C11240C94FD0B0E94DA0BB6
:1018300070F3959FC1F3950F50E0551F629FF00123
:10184000729FBB27F00DB11D639FAA27F00DB11D3C
:10185000AA1F649F6627B00DA11D661F829F2227C5
:10186000B00DA11D621F739FB00DA11D621F839F4C
:10187000A00D611D221F749F3327A00D611D231F22
:10188000849F600D211D822F762F6A2F11249F5770
:1018900050409AF0F1F088234AF0EE0FFF1FBB1F73
:1018A000661F771F881F91505040A9F79E3F510532
:1018B00080F00C94700C0C94FD0B5F3FE4F3983EA9
:1018C000D4F3869577956795B795F795E7959F5FDC
:1018D000C1F7FE2B880F911D9695879597F908956E
:1018E00097F99F6780E870E060E008959FEF80ECD3
:1018F000089500240A941616170618060906089576
:1019000000240A9412161306140605060895092EDB
:101910000394000C11F4882352F0BB0F40F4BF2B4A
:1019200011F460FF04C06F5F7F4F8F4F9F4F08958A
:1019300097FB072E16F4009407D077FD09D00E947C
:10194000B30C07FC05D03EF4909581959F4F089508
:10195000709561957F4F08950E94580BB7FF0895C9
:10196000821B930B0895AA1BBB1B51E107C0AA1F42
:10197000BB1FA617B70710F0A61BB70B881F991F30
:101980005A95A9F780959095BC01CD010895EE0F69
:10199000FF1F0590F491E02D099410E0C2E6D0E01D
:1019A00004C0FE010E94C70C2196C336D107C9F7B7
:0419B000F894FFCFD9
:1019B400000000002D018D00BA007A01EB00C9007F
:1019C400DD000000000072048D001D031C030000F4
:1019D400000087028D001D038602E302FB026E02F3
:1019E4000D0A0053656C616D617420446174616E0D
:1019F40067202E2E2E004D656E676563656B207320
:101A040074617475732074616E676B69202E2E2E59
:101A140000506F6D70612054616E676B69204D4595
:101A24004E59414C4100506F6D70612041697220E4
:101A34004D454E59414C4100506F6D7061205461C9
:101A44006E676B69204D41544900506F6D70612081
:101A5400416972204D41544900536D6172740049CB
:101A6400727269676174696F6E0053797374656D1E
:101A74000054696E67676920416972203A2020002A
:101A840025004C656D626162616E2054616E61680F
:101A9400203A2000506F6D706120416972203A2015
:101AA400004F4E00506F6D70612054616E676B691A
:101AB400203A200054696E676769616E204169723B
:101AC400203D2020004C656D626162616E2054618E
:0C1AD4006E6168203D20004F4646000077
:00000001FF
